{
  "contractName": "Candidate_data",
  "abi": [
    {
      "constant": true,
      "inputs": [
        {
          "name": "",
          "type": "uint256"
        }
      ],
      "name": "Users",
      "outputs": [
        {
          "name": "voters_ID",
          "type": "uint256"
        },
        {
          "name": "votername",
          "type": "string"
        },
        {
          "name": "Regno",
          "type": "string"
        },
        {
          "name": "Branch",
          "type": "string"
        },
        {
          "name": "Year",
          "type": "string"
        },
        {
          "name": "Emailid",
          "type": "string"
        },
        {
          "name": "password",
          "type": "string"
        }
      ],
      "payable": false,
      "stateMutability": "view",
      "type": "function"
    },
    {
      "constant": true,
      "inputs": [
        {
          "name": "",
          "type": "uint256"
        }
      ],
      "name": "Candidates",
      "outputs": [
        {
          "name": "Id",
          "type": "uint256"
        },
        {
          "name": "candidatename",
          "type": "string"
        },
        {
          "name": "branch",
          "type": "string"
        },
        {
          "name": "gender",
          "type": "string"
        },
        {
          "name": "year",
          "type": "string"
        },
        {
          "name": "email_id",
          "type": "string"
        },
        {
          "name": "reg_id",
          "type": "string"
        },
        {
          "name": "vote_count",
          "type": "uint256"
        }
      ],
      "payable": false,
      "stateMutability": "view",
      "type": "function"
    },
    {
      "constant": true,
      "inputs": [
        {
          "name": "",
          "type": "uint256"
        }
      ],
      "name": "candidate_event",
      "outputs": [
        {
          "name": "Id",
          "type": "uint256"
        },
        {
          "name": "candidate_event",
          "type": "string"
        }
      ],
      "payable": false,
      "stateMutability": "view",
      "type": "function"
    },
    {
      "constant": true,
      "inputs": [
        {
          "name": "",
          "type": "address"
        }
      ],
      "name": "Candidate_event_list",
      "outputs": [
        {
          "name": "Id",
          "type": "uint256"
        },
        {
          "name": "candidate_event",
          "type": "string"
        }
      ],
      "payable": false,
      "stateMutability": "view",
      "type": "function"
    },
    {
      "constant": true,
      "inputs": [],
      "name": "voters_count",
      "outputs": [
        {
          "name": "",
          "type": "uint256"
        }
      ],
      "payable": false,
      "stateMutability": "view",
      "type": "function"
    },
    {
      "constant": true,
      "inputs": [],
      "name": "Candidate_count",
      "outputs": [
        {
          "name": "",
          "type": "uint256"
        }
      ],
      "payable": false,
      "stateMutability": "view",
      "type": "function"
    },
    {
      "constant": true,
      "inputs": [
        {
          "name": "",
          "type": "address"
        }
      ],
      "name": "users_rem_list",
      "outputs": [
        {
          "name": "voters_ID",
          "type": "uint256"
        },
        {
          "name": "has_voted",
          "type": "bool"
        },
        {
          "name": "key",
          "type": "string"
        }
      ],
      "payable": false,
      "stateMutability": "view",
      "type": "function"
    },
    {
      "constant": true,
      "inputs": [
        {
          "name": "",
          "type": "uint256"
        }
      ],
      "name": "Users_rem",
      "outputs": [
        {
          "name": "voters_ID",
          "type": "uint256"
        },
        {
          "name": "has_voted",
          "type": "bool"
        },
        {
          "name": "key",
          "type": "string"
        }
      ],
      "payable": false,
      "stateMutability": "view",
      "type": "function"
    },
    {
      "constant": true,
      "inputs": [
        {
          "name": "",
          "type": "address"
        }
      ],
      "name": "voters",
      "outputs": [
        {
          "name": "",
          "type": "bool"
        }
      ],
      "payable": false,
      "stateMutability": "view",
      "type": "function"
    },
    {
      "constant": true,
      "inputs": [
        {
          "name": "",
          "type": "address"
        }
      ],
      "name": "users_list",
      "outputs": [
        {
          "name": "voters_ID",
          "type": "uint256"
        },
        {
          "name": "votername",
          "type": "string"
        },
        {
          "name": "Regno",
          "type": "string"
        },
        {
          "name": "Branch",
          "type": "string"
        },
        {
          "name": "Year",
          "type": "string"
        },
        {
          "name": "Emailid",
          "type": "string"
        },
        {
          "name": "password",
          "type": "string"
        }
      ],
      "payable": false,
      "stateMutability": "view",
      "type": "function"
    },
    {
      "constant": true,
      "inputs": [
        {
          "name": "",
          "type": "uint256"
        }
      ],
      "name": "admin",
      "outputs": [
        {
          "name": "username",
          "type": "string"
        },
        {
          "name": "password",
          "type": "string"
        }
      ],
      "payable": false,
      "stateMutability": "view",
      "type": "function"
    },
    {
      "constant": true,
      "inputs": [
        {
          "name": "",
          "type": "address"
        }
      ],
      "name": "Candidate_list",
      "outputs": [
        {
          "name": "Id",
          "type": "uint256"
        },
        {
          "name": "candidatename",
          "type": "string"
        },
        {
          "name": "branch",
          "type": "string"
        },
        {
          "name": "gender",
          "type": "string"
        },
        {
          "name": "year",
          "type": "string"
        },
        {
          "name": "email_id",
          "type": "string"
        },
        {
          "name": "reg_id",
          "type": "string"
        },
        {
          "name": "vote_count",
          "type": "uint256"
        }
      ],
      "payable": false,
      "stateMutability": "view",
      "type": "function"
    },
    {
      "anonymous": false,
      "inputs": [
        {
          "indexed": true,
          "name": "_candidateId",
          "type": "uint256"
        }
      ],
      "name": "votedEvent",
      "type": "event"
    },
    {
      "constant": false,
      "inputs": [
        {
          "name": "_cand",
          "type": "string"
        },
        {
          "name": "_branch",
          "type": "string"
        },
        {
          "name": "_gender",
          "type": "string"
        },
        {
          "name": "_email",
          "type": "string"
        },
        {
          "name": "_year",
          "type": "string"
        },
        {
          "name": "_reg_id",
          "type": "string"
        },
        {
          "name": "_event",
          "type": "string"
        }
      ],
      "name": "addCandidate",
      "outputs": [],
      "payable": true,
      "stateMutability": "payable",
      "type": "function"
    },
    {
      "constant": false,
      "inputs": [
        {
          "name": "_hasvoted",
          "type": "bool"
        },
        {
          "name": "_votername",
          "type": "string"
        },
        {
          "name": "_regno",
          "type": "string"
        },
        {
          "name": "_voterbranch",
          "type": "string"
        },
        {
          "name": "_voteryear",
          "type": "string"
        },
        {
          "name": "_emailid",
          "type": "string"
        },
        {
          "name": "_pubkey",
          "type": "string"
        },
        {
          "name": "_pass",
          "type": "string"
        }
      ],
      "name": "addVoter",
      "outputs": [
        {
          "name": "",
          "type": "uint256"
        }
      ],
      "payable": true,
      "stateMutability": "payable",
      "type": "function"
    },
    {
      "constant": false,
      "inputs": [
        {
          "name": "_key",
          "type": "string"
        },
        {
          "name": "_regNo",
          "type": "string"
        },
        {
          "name": "_voter_regNo",
          "type": "string"
        }
      ],
      "name": "addVote",
      "outputs": [
        {
          "name": "",
          "type": "uint256"
        },
        {
          "name": "",
          "type": "string"
        }
      ],
      "payable": true,
      "stateMutability": "payable",
      "type": "function"
    },
    {
      "constant": false,
      "inputs": [
        {
          "name": "_username",
          "type": "string"
        },
        {
          "name": "_keyword",
          "type": "string"
        }
      ],
      "name": "adminLogin",
      "outputs": [
        {
          "name": "",
          "type": "uint256"
        }
      ],
      "payable": true,
      "stateMutability": "payable",
      "type": "function"
    },
    {
      "constant": false,
      "inputs": [
        {
          "name": "_username",
          "type": "string"
        },
        {
          "name": "_keyword",
          "type": "string"
        }
      ],
      "name": "adminLogin",
      "outputs": [
        {
          "name": "",
          "type": "uint256"
        }
      ],
      "payable": true,
      "stateMutability": "payable",
      "type": "function"
    }
  ],
  "bytecode": "0x608060405234801561001057600080fd5b50614322806100206000396000f3fe6080604052600436106100e6576000357c0100000000000000000000000000000000000000000000000000000000900463ffffffff1680631e98fd1c146100eb578063290e9212146103c25780632fefef27146106a05780633156f1231461075b57806340dec7281461082c5780634c72655414610857578063542abb791461088257806359a2d0551461095e578063a3ec138d14610a24578063b8ee029614610a8d578063c34e938314610c8a578063c715408014610f77578063d599a1c6146110dd578063db2dbcdb146111fd578063e8c52c99146114f1578063f6fb060614611957575b600080fd5b3480156100f757600080fd5b506101246004803603602081101561010e57600080fd5b8101908080359060200190929190505050611d9c565b6040518088815260200180602001806020018060200180602001806020018060200187810387528d818151815260200191508051906020019080838360005b8381101561017e578082015181840152602081019050610163565b50505050905090810190601f1680156101ab5780820380516001836020036101000a031916815260200191505b5087810386528c818151815260200191508051906020019080838360005b838110156101e45780820151818401526020810190506101c9565b50505050905090810190601f1680156102115780820380516001836020036101000a031916815260200191505b5087810385528b818151815260200191508051906020019080838360005b8381101561024a57808201518184015260208101905061022f565b50505050905090810190601f1680156102775780820380516001836020036101000a031916815260200191505b5087810384528a818151815260200191508051906020019080838360005b838110156102b0578082015181840152602081019050610295565b50505050905090810190601f1680156102dd5780820380516001836020036101000a031916815260200191505b50878103835289818151815260200191508051906020019080838360005b838110156103165780820151818401526020810190506102fb565b50505050905090810190601f1680156103435780820380516001836020036101000a031916815260200191505b50878103825288818151815260200191508051906020019080838360005b8381101561037c578082015181840152602081019050610361565b50505050905090810190601f1680156103a95780820380516001836020036101000a031916815260200191505b509d505050505050505050505050505060405180910390f35b3480156103ce57600080fd5b506103fb600480360360208110156103e557600080fd5b810190808035906020019092919050505061216e565b6040518089815260200180602001806020018060200180602001806020018060200188815260200187810387528e818151815260200191508051906020019080838360005b8381101561045b578082015181840152602081019050610440565b50505050905090810190601f1680156104885780820380516001836020036101000a031916815260200191505b5087810386528d818151815260200191508051906020019080838360005b838110156104c15780820151818401526020810190506104a6565b50505050905090810190601f1680156104ee5780820380516001836020036101000a031916815260200191505b5087810385528c818151815260200191508051906020019080838360005b8381101561052757808201518184015260208101905061050c565b50505050905090810190601f1680156105545780820380516001836020036101000a031916815260200191505b5087810384528b818151815260200191508051906020019080838360005b8381101561058d578082015181840152602081019050610572565b50505050905090810190601f1680156105ba5780820380516001836020036101000a031916815260200191505b5087810383528a818151815260200191508051906020019080838360005b838110156105f35780820151818401526020810190506105d8565b50505050905090810190601f1680156106205780820380516001836020036101000a031916815260200191505b50878103825289818151815260200191508051906020019080838360005b8381101561065957808201518184015260208101905061063e565b50505050905090810190601f1680156106865780820380516001836020036101000a031916815260200191505b509e50505050505050505050505050505060405180910390f35b3480156106ac57600080fd5b506106d9600480360360208110156106c357600080fd5b8101908080359060200190929190505050612546565b6040518083815260200180602001828103825283818151815260200191508051906020019080838360005b8381101561071f578082015181840152602081019050610704565b50505050905090810190601f16801561074c5780820380516001836020036101000a031916815260200191505b50935050505060405180910390f35b34801561076757600080fd5b506107aa6004803603602081101561077e57600080fd5b81019080803573ffffffffffffffffffffffffffffffffffffffff169060200190929190505050612602565b6040518083815260200180602001828103825283818151815260200191508051906020019080838360005b838110156107f05780820151818401526020810190506107d5565b50505050905090810190601f16801561081d5780820380516001836020036101000a031916815260200191505b50935050505060405180910390f35b34801561083857600080fd5b506108416126be565b6040518082815260200191505060405180910390f35b34801561086357600080fd5b5061086c6126c4565b6040518082815260200191505060405180910390f35b34801561088e57600080fd5b506108d1600480360360208110156108a557600080fd5b81019080803573ffffffffffffffffffffffffffffffffffffffff1690602001909291905050506126ca565b604051808481526020018315151515815260200180602001828103825283818151815260200191508051906020019080838360005b83811015610921578082015181840152602081019050610906565b50505050905090810190601f16801561094e5780820380516001836020036101000a031916815260200191505b5094505050505060405180910390f35b34801561096a57600080fd5b506109976004803603602081101561098157600080fd5b8101908080359060200190929190505050612799565b604051808481526020018315151515815260200180602001828103825283818151815260200191508051906020019080838360005b838110156109e75780820151818401526020810190506109cc565b50505050905090810190601f168015610a145780820380516001836020036101000a031916815260200191505b5094505050505060405180910390f35b348015610a3057600080fd5b50610a7360048036036020811015610a4757600080fd5b81019080803573ffffffffffffffffffffffffffffffffffffffff169060200190929190505050612868565b604051808215151515815260200191505060405180910390f35b610c7460048036036060811015610aa357600080fd5b8101908080359060200190640100000000811115610ac057600080fd5b820183602082011115610ad257600080fd5b80359060200191846001830284011164010000000083111715610af457600080fd5b91908080601f016020809104026020016040519081016040528093929190818152602001838380828437600081840152601f19601f82011690508083019250505050505050919291929080359060200190640100000000811115610b5757600080fd5b820183602082011115610b6957600080fd5b80359060200191846001830284011164010000000083111715610b8b57600080fd5b91908080601f016020809104026020016040519081016040528093929190818152602001838380828437600081840152601f19601f82011690508083019250505050505050919291929080359060200190640100000000811115610bee57600080fd5b820183602082011115610c0057600080fd5b80359060200191846001830284011164010000000083111715610c2257600080fd5b91908080601f016020809104026020016040519081016040528093929190818152602001838380828437600081840152601f19601f820116905080830192505050505050509192919290505050612888565b6040518082815260200191505060405180910390f35b348015610c9657600080fd5b50610cd960048036036020811015610cad57600080fd5b81019080803573ffffffffffffffffffffffffffffffffffffffff169060200190929190505050612e48565b6040518088815260200180602001806020018060200180602001806020018060200187810387528d818151815260200191508051906020019080838360005b83811015610d33578082015181840152602081019050610d18565b50505050905090810190601f168015610d605780820380516001836020036101000a031916815260200191505b5087810386528c818151815260200191508051906020019080838360005b83811015610d99578082015181840152602081019050610d7e565b50505050905090810190601f168015610dc65780820380516001836020036101000a031916815260200191505b5087810385528b818151815260200191508051906020019080838360005b83811015610dff578082015181840152602081019050610de4565b50505050905090810190601f168015610e2c5780820380516001836020036101000a031916815260200191505b5087810384528a818151815260200191508051906020019080838360005b83811015610e65578082015181840152602081019050610e4a565b50505050905090810190601f168015610e925780820380516001836020036101000a031916815260200191505b50878103835289818151815260200191508051906020019080838360005b83811015610ecb578082015181840152602081019050610eb0565b50505050905090810190601f168015610ef85780820380516001836020036101000a031916815260200191505b50878103825288818151815260200191508051906020019080838360005b83811015610f31578082015181840152602081019050610f16565b50505050905090810190601f168015610f5e5780820380516001836020036101000a031916815260200191505b509d505050505050505050505050505060405180910390f35b6110c760048036036040811015610f8d57600080fd5b8101908080359060200190640100000000811115610faa57600080fd5b820183602082011115610fbc57600080fd5b80359060200191846001830284011164010000000083111715610fde57600080fd5b91908080601f016020809104026020016040519081016040528093929190818152602001838380828437600081840152601f19601f8201169050808301925050505050505091929192908035906020019064010000000081111561104157600080fd5b82018360208201111561105357600080fd5b8035906020019184600183028401116401000000008311171561107557600080fd5b91908080601f016020809104026020016040519081016040528093929190818152602001838380828437600081840152601f19601f82011690508083019250505050505050919291929050505061321a565b6040518082815260200191505060405180910390f35b3480156110e957600080fd5b506111166004803603602081101561110057600080fd5b810190808035906020019092919050505061380a565b604051808060200180602001838103835285818151815260200191508051906020019080838360005b8381101561115a57808201518184015260208101905061113f565b50505050905090810190601f1680156111875780820380516001836020036101000a031916815260200191505b50838103825284818151815260200191508051906020019080838360005b838110156111c05780820151818401526020810190506111a5565b50505050905090810190601f1680156111ed5780820380516001836020036101000a031916815260200191505b5094505050505060405180910390f35b34801561120957600080fd5b5061124c6004803603602081101561122057600080fd5b81019080803573ffffffffffffffffffffffffffffffffffffffff16906020019092919050505061395e565b6040518089815260200180602001806020018060200180602001806020018060200188815260200187810387528e818151815260200191508051906020019080838360005b838110156112ac578082015181840152602081019050611291565b50505050905090810190601f1680156112d95780820380516001836020036101000a031916815260200191505b5087810386528d818151815260200191508051906020019080838360005b838110156113125780820151818401526020810190506112f7565b50505050905090810190601f16801561133f5780820380516001836020036101000a031916815260200191505b5087810385528c818151815260200191508051906020019080838360005b8381101561137857808201518184015260208101905061135d565b50505050905090810190601f1680156113a55780820380516001836020036101000a031916815260200191505b5087810384528b818151815260200191508051906020019080838360005b838110156113de5780820151818401526020810190506113c3565b50505050905090810190601f16801561140b5780820380516001836020036101000a031916815260200191505b5087810383528a818151815260200191508051906020019080838360005b83811015611444578082015181840152602081019050611429565b50505050905090810190601f1680156114715780820380516001836020036101000a031916815260200191505b50878103825289818151815260200191508051906020019080838360005b838110156114aa57808201518184015260208101905061148f565b50505050905090810190601f1680156114d75780820380516001836020036101000a031916815260200191505b509e50505050505050505050505050505060405180910390f35b611941600480360361010081101561150857600080fd5b810190808035151590602001909291908035906020019064010000000081111561153157600080fd5b82018360208201111561154357600080fd5b8035906020019184600183028401116401000000008311171561156557600080fd5b91908080601f016020809104026020016040519081016040528093929190818152602001838380828437600081840152601f19601f820116905080830192505050505050509192919290803590602001906401000000008111156115c857600080fd5b8201836020820111156115da57600080fd5b803590602001918460018302840111640100000000831117156115fc57600080fd5b91908080601f016020809104026020016040519081016040528093929190818152602001838380828437600081840152601f19601f8201169050808301925050505050505091929192908035906020019064010000000081111561165f57600080fd5b82018360208201111561167157600080fd5b8035906020019184600183028401116401000000008311171561169357600080fd5b91908080601f016020809104026020016040519081016040528093929190818152602001838380828437600081840152601f19601f820116905080830192505050505050509192919290803590602001906401000000008111156116f657600080fd5b82018360208201111561170857600080fd5b8035906020019184600183028401116401000000008311171561172a57600080fd5b91908080601f016020809104026020016040519081016040528093929190818152602001838380828437600081840152601f19601f8201169050808301925050505050505091929192908035906020019064010000000081111561178d57600080fd5b82018360208201111561179f57600080fd5b803590602001918460018302840111640100000000831117156117c157600080fd5b91908080601f016020809104026020016040519081016040528093929190818152602001838380828437600081840152601f19601f8201169050808301925050505050505091929192908035906020019064010000000081111561182457600080fd5b82018360208201111561183657600080fd5b8035906020019184600183028401116401000000008311171561185857600080fd5b91908080601f016020809104026020016040519081016040528093929190818152602001838380828437600081840152601f19601f820116905080830192505050505050509192919290803590602001906401000000008111156118bb57600080fd5b8201836020820111156118cd57600080fd5b803590602001918460018302840111640100000000831117156118ef57600080fd5b91908080601f016020809104026020016040519081016040528093929190818152602001838380828437600081840152601f19601f820116905080830192505050505050509192919290505050613d36565b6040518082815260200191505060405180910390f35b611d9a600480360360e081101561196d57600080fd5b810190808035906020019064010000000081111561198a57600080fd5b82018360208201111561199c57600080fd5b803590602001918460018302840111640100000000831117156119be57600080fd5b91908080601f016020809104026020016040519081016040528093929190818152602001838380828437600081840152601f19601f82011690508083019250505050505050919291929080359060200190640100000000811115611a2157600080fd5b820183602082011115611a3357600080fd5b80359060200191846001830284011164010000000083111715611a5557600080fd5b91908080601f016020809104026020016040519081016040528093929190818152602001838380828437600081840152601f19601f82011690508083019250505050505050919291929080359060200190640100000000811115611ab857600080fd5b820183602082011115611aca57600080fd5b80359060200191846001830284011164010000000083111715611aec57600080fd5b91908080601f016020809104026020016040519081016040528093929190818152602001838380828437600081840152601f19601f82011690508083019250505050505050919291929080359060200190640100000000811115611b4f57600080fd5b820183602082011115611b6157600080fd5b80359060200191846001830284011164010000000083111715611b8357600080fd5b91908080601f016020809104026020016040519081016040528093929190818152602001838380828437600081840152601f19601f82011690508083019250505050505050919291929080359060200190640100000000811115611be657600080fd5b820183602082011115611bf857600080fd5b80359060200191846001830284011164010000000083111715611c1a57600080fd5b91908080601f016020809104026020016040519081016040528093929190818152602001838380828437600081840152601f19601f82011690508083019250505050505050919291929080359060200190640100000000811115611c7d57600080fd5b820183602082011115611c8f57600080fd5b80359060200191846001830284011164010000000083111715611cb157600080fd5b91908080601f016020809104026020016040519081016040528093929190818152602001838380828437600081840152601f19601f82011690508083019250505050505050919291929080359060200190640100000000811115611d1457600080fd5b820183602082011115611d2657600080fd5b80359060200191846001830284011164010000000083111715611d4857600080fd5b91908080601f016020809104026020016040519081016040528093929190818152602001838380828437600081840152601f19601f8201169050808301925050505050505091929192905050506140c8565b005b6005602052806000526040600020600091509050806000015490806001018054600181600116156101000203166002900480601f016020809104026020016040519081016040528092919081815260200182805460018160011615610100020316600290048015611e4e5780601f10611e2357610100808354040283529160200191611e4e565b820191906000526020600020905b815481529060010190602001808311611e3157829003601f168201915b505050505090806002018054600181600116156101000203166002900480601f016020809104026020016040519081016040528092919081815260200182805460018160011615610100020316600290048015611eec5780601f10611ec157610100808354040283529160200191611eec565b820191906000526020600020905b815481529060010190602001808311611ecf57829003601f168201915b505050505090806003018054600181600116156101000203166002900480601f016020809104026020016040519081016040528092919081815260200182805460018160011615610100020316600290048015611f8a5780601f10611f5f57610100808354040283529160200191611f8a565b820191906000526020600020905b815481529060010190602001808311611f6d57829003601f168201915b505050505090806004018054600181600116156101000203166002900480601f0160208091040260200160405190810160405280929190818152602001828054600181600116156101000203166002900480156120285780601f10611ffd57610100808354040283529160200191612028565b820191906000526020600020905b81548152906001019060200180831161200b57829003601f168201915b505050505090806005018054600181600116156101000203166002900480601f0160208091040260200160405190810160405280929190818152602001828054600181600116156101000203166002900480156120c65780601f1061209b576101008083540402835291602001916120c6565b820191906000526020600020905b8154815290600101906020018083116120a957829003601f168201915b505050505090806006018054600181600116156101000203166002900480601f0160208091040260200160405190810160405280929190818152602001828054600181600116156101000203166002900480156121645780601f1061213957610100808354040283529160200191612164565b820191906000526020600020905b81548152906001019060200180831161214757829003601f168201915b5050505050905087565b6008602052806000526040600020600091509050806000015490806001018054600181600116156101000203166002900480601f0160208091040260200160405190810160405280929190818152602001828054600181600116156101000203166002900480156122205780601f106121f557610100808354040283529160200191612220565b820191906000526020600020905b81548152906001019060200180831161220357829003601f168201915b505050505090806002018054600181600116156101000203166002900480601f0160208091040260200160405190810160405280929190818152602001828054600181600116156101000203166002900480156122be5780601f10612293576101008083540402835291602001916122be565b820191906000526020600020905b8154815290600101906020018083116122a157829003601f168201915b505050505090806003018054600181600116156101000203166002900480601f01602080910402602001604051908101604052809291908181526020018280546001816001161561010002031660029004801561235c5780601f106123315761010080835404028352916020019161235c565b820191906000526020600020905b81548152906001019060200180831161233f57829003601f168201915b505050505090806004018054600181600116156101000203166002900480601f0160208091040260200160405190810160405280929190818152602001828054600181600116156101000203166002900480156123fa5780601f106123cf576101008083540402835291602001916123fa565b820191906000526020600020905b8154815290600101906020018083116123dd57829003601f168201915b505050505090806005018054600181600116156101000203166002900480601f0160208091040260200160405190810160405280929190818152602001828054600181600116156101000203166002900480156124985780601f1061246d57610100808354040283529160200191612498565b820191906000526020600020905b81548152906001019060200180831161247b57829003601f168201915b505050505090806006018054600181600116156101000203166002900480601f0160208091040260200160405190810160405280929190818152602001828054600181600116156101000203166002900480156125365780601f1061250b57610100808354040283529160200191612536565b820191906000526020600020905b81548152906001019060200180831161251957829003601f168201915b5050505050908060070154905088565b6009602052806000526040600020600091509050806000015490806001018054600181600116156101000203166002900480601f0160208091040260200160405190810160405280929190818152602001828054600181600116156101000203166002900480156125f85780601f106125cd576101008083540402835291602001916125f8565b820191906000526020600020905b8154815290600101906020018083116125db57829003601f168201915b5050505050905082565b6004602052806000526040600020600091509050806000015490806001018054600181600116156101000203166002900480601f0160208091040260200160405190810160405280929190818152602001828054600181600116156101000203166002900480156126b45780601f10612689576101008083540402835291602001916126b4565b820191906000526020600020905b81548152906001019060200180831161269757829003601f168201915b5050505050905082565b600b5481565b600a5481565b60026020528060005260406000206000915090508060000154908060010160009054906101000a900460ff1690806002018054600181600116156101000203166002900480601f01602080910402602001604051908101604052809291908181526020018280546001816001161561010002031660029004801561278f5780601f106127645761010080835404028352916020019161278f565b820191906000526020600020905b81548152906001019060200180831161277257829003601f168201915b5050505050905083565b60066020528060005260406000206000915090508060000154908060010160009054906101000a900460ff1690806002018054600181600116156101000203166002900480601f01602080910402602001604051908101604052809291908181526020018280546001816001161561010002031660029004801561285e5780601f106128335761010080835404028352916020019161285e565b820191906000526020600020905b81548152906001019060200180831161284157829003601f168201915b5050505050905083565b60076020528060005260406000206000915054906101000a900460ff1681565b600080600060608060008090506060600095505b600b54861015612b0857600560008781526020019081526020016000206002018054600181600116156101000203166002900480601f0160208091040260200160405190810160405280929190818152602001828054600181600116156101000203166002900480156129505780601f1061292557610100808354040283529160200191612950565b820191906000526020600020905b81548152906001019060200180831161293357829003601f168201915b50505050509250876040516020018082805190602001908083835b602083101515612990578051825260208201915060208101905060208303925061296b565b6001836020036101000a03801982511681845116808217855250505050505090500191505060405160208183030381529060405280519060200120836040516020018082805190602001908083835b602083101515612a0457805182526020820191506020810190506020830392506129df565b6001836020036101000a038019825116818451168082178552505050505050905001915050604051602081830303815290604052805190602001201415612afb57600660008781526020019081526020016000206002018054600181600116156101000203166002900480601f016020809104026020016040519081016040528092919081815260200182805460018160011615610100020316600290048015612aef5780601f10612ac457610100808354040283529160200191612aef565b820191906000526020600020905b815481529060010190602001808311612ad257829003601f168201915b50505050509350612b08565b858060010196505061289c565b836040516020018082805190602001908083835b602083101515612b415780518252602082019150602081019050602083039250612b1c565b6001836020036101000a038019825116818451168082178552505050505050905001915050604051602081830303815290604052805190602001208a6040516020018082805190602001908083835b602083101515612bb55780518252602082019150602081019050602083039250612b90565b6001836020036101000a038019825116818451168082178552505050505050905001915050604051602081830303815290604052805190602001201415612e3a57600094505b600a54851015612e0f57600860008681526020019081526020016000206006018054600181600116156101000203166002900480601f016020809104026020016040519081016040528092919081815260200182805460018160011615610100020316600290048015612caf5780601f10612c8457610100808354040283529160200191612caf565b820191906000526020600020905b815481529060010190602001808311612c9257829003601f168201915b50505050509050886040516020018082805190602001908083835b602083101515612cef5780518252602082019150602081019050602083039250612cca565b6001836020036101000a03801982511681845116808217855250505050505090500191505060405160208183030381529060405280519060200120816040516020018082805190602001908083835b602083101515612d635780518252602082019150602081019050602083039250612d3e565b6001836020036101000a038019825116818451168082178552505050505050905001915050604051602081830303815290604052805190602001201415612e025760019150600860008681526020019081526020016000206007016000815480929190600101919050555060016006600080815260200190815260200160002060010160006101000a81548160ff021916908315150217905550612e0f565b8480600101955050612bfb565b600115158215151415612e2b5760019650505050505050612e41565b60009650505050505050612e41565b5050505050505b9392505050565b6001602052806000526040600020600091509050806000015490806001018054600181600116156101000203166002900480601f016020809104026020016040519081016040528092919081815260200182805460018160011615610100020316600290048015612efa5780601f10612ecf57610100808354040283529160200191612efa565b820191906000526020600020905b815481529060010190602001808311612edd57829003601f168201915b505050505090806002018054600181600116156101000203166002900480601f016020809104026020016040519081016040528092919081815260200182805460018160011615610100020316600290048015612f985780601f10612f6d57610100808354040283529160200191612f98565b820191906000526020600020905b815481529060010190602001808311612f7b57829003601f168201915b505050505090806003018054600181600116156101000203166002900480601f0160208091040260200160405190810160405280929190818152602001828054600181600116156101000203166002900480156130365780601f1061300b57610100808354040283529160200191613036565b820191906000526020600020905b81548152906001019060200180831161301957829003601f168201915b505050505090806004018054600181600116156101000203166002900480601f0160208091040260200160405190810160405280929190818152602001828054600181600116156101000203166002900480156130d45780601f106130a9576101008083540402835291602001916130d4565b820191906000526020600020905b8154815290600101906020018083116130b757829003601f168201915b505050505090806005018054600181600116156101000203166002900480601f0160208091040260200160405190810160405280929190818152602001828054600181600116156101000203166002900480156131725780601f1061314757610100808354040283529160200191613172565b820191906000526020600020905b81548152906001019060200180831161315557829003601f168201915b505050505090806006018054600181600116156101000203166002900480601f0160208091040260200160405190810160405280929190818152602001828054600181600116156101000203166002900480156132105780601f106131e557610100808354040283529160200191613210565b820191906000526020600020905b8154815290600101906020018083116131f357829003601f168201915b5050505050905087565b60006060806040805190810160405280600781526020017f6740672e636f6d0000000000000000000000000000000000000000000000000081525091506040805190810160405280600481526020017f676f7069000000000000000000000000000000000000000000000000000000008152509050846040516020018082805190602001908083835b6020831015156132c857805182526020820191506020810190506020830392506132a3565b6001836020036101000a03801982511681845116808217855250505050505090500191505060405160208183030381529060405280519060200120826040516020018082805190602001908083835b60208310151561333c5780518252602082019150602081019050602083039250613317565b6001836020036101000a038019825116818451168082178552505050505050905001915050604051602081830303815290604052805190602001201480156134695750836040516020018082805190602001908083835b6020831015156133b85780518252602082019150602081019050602083039250613393565b6001836020036101000a03801982511681845116808217855250505050505090500191505060405160208183030381529060405280519060200120816040516020018082805190602001908083835b60208310151561342c5780518252602082019150602081019050602083039250613407565b6001836020036101000a03801982511681845116808217855250505050505090500191505060405160208183030381529060405280519060200120145b1561347957600192505050613804565b600080905060008090505b600b54811115156137e257600560008281526020019081526020016000206005018054600181600116156101000203166002900480601f0160208091040260200160405190810160405280929190818152602001828054600181600116156101000203166002900480156135395780601f1061350e57610100808354040283529160200191613539565b820191906000526020600020905b81548152906001019060200180831161351c57829003601f168201915b50505050509350600560008281526020019081526020016000206006018054600181600116156101000203166002900480601f0160208091040260200160405190810160405280929190818152602001828054600181600116156101000203166002900480156135ea5780601f106135bf576101008083540402835291602001916135ea565b820191906000526020600020905b8154815290600101906020018083116135cd57829003601f168201915b50505050509250866040516020018082805190602001908083835b60208310151561362a5780518252602082019150602081019050602083039250613605565b6001836020036101000a03801982511681845116808217855250505050505090500191505060405160208183030381529060405280519060200120846040516020018082805190602001908083835b60208310151561369e5780518252602082019150602081019050602083039250613679565b6001836020036101000a038019825116818451168082178552505050505050905001915050604051602081830303815290604052805190602001201480156137cb5750856040516020018082805190602001908083835b60208310151561371a57805182526020820191506020810190506020830392506136f5565b6001836020036101000a03801982511681845116808217855250505050505090500191505060405160208183030381529060405280519060200120836040516020018082805190602001908083835b60208310151561378e5780518252602082019150602081019050602083039250613769565b6001836020036101000a03801982511681845116808217855250505050505090500191505060405160208183030381529060405280519060200120145b156137d557600191505b8080600101915050613484565b506001151581151514156137fc57600b9350505050613804565b600093505050505b92915050565b6000602052806000526040600020600091509050806000018054600181600116156101000203166002900480601f0160208091040260200160405190810160405280929190818152602001828054600181600116156101000203166002900480156138b65780601f1061388b576101008083540402835291602001916138b6565b820191906000526020600020905b81548152906001019060200180831161389957829003601f168201915b505050505090806001018054600181600116156101000203166002900480601f0160208091040260200160405190810160405280929190818152602001828054600181600116156101000203166002900480156139545780601f1061392957610100808354040283529160200191613954565b820191906000526020600020905b81548152906001019060200180831161393757829003601f168201915b5050505050905082565b6003602052806000526040600020600091509050806000015490806001018054600181600116156101000203166002900480601f016020809104026020016040519081016040528092919081815260200182805460018160011615610100020316600290048015613a105780601f106139e557610100808354040283529160200191613a10565b820191906000526020600020905b8154815290600101906020018083116139f357829003601f168201915b505050505090806002018054600181600116156101000203166002900480601f016020809104026020016040519081016040528092919081815260200182805460018160011615610100020316600290048015613aae5780601f10613a8357610100808354040283529160200191613aae565b820191906000526020600020905b815481529060010190602001808311613a9157829003601f168201915b505050505090806003018054600181600116156101000203166002900480601f016020809104026020016040519081016040528092919081815260200182805460018160011615610100020316600290048015613b4c5780601f10613b2157610100808354040283529160200191613b4c565b820191906000526020600020905b815481529060010190602001808311613b2f57829003601f168201915b505050505090806004018054600181600116156101000203166002900480601f016020809104026020016040519081016040528092919081815260200182805460018160011615610100020316600290048015613bea5780601f10613bbf57610100808354040283529160200191613bea565b820191906000526020600020905b815481529060010190602001808311613bcd57829003601f168201915b505050505090806005018054600181600116156101000203166002900480601f016020809104026020016040519081016040528092919081815260200182805460018160011615610100020316600290048015613c885780601f10613c5d57610100808354040283529160200191613c88565b820191906000526020600020905b815481529060010190602001808311613c6b57829003601f168201915b505050505090806006018054600181600116156101000203166002900480601f016020809104026020016040519081016040528092919081815260200182805460018160011615610100020316600290048015613d265780601f10613cfb57610100808354040283529160200191613d26565b820191906000526020600020905b815481529060010190602001808311613d0957829003601f168201915b5050505050908060070154905088565b6000806000809050600091505b600b54821015613f06576060600560008481526020019081526020016000206002018054600181600116156101000203166002900480601f016020809104026020016040519081016040528092919081815260200182805460018160011615610100020316600290048015613df95780601f10613dce57610100808354040283529160200191613df9565b820191906000526020600020905b815481529060010190602001808311613ddc57829003601f168201915b50505050509050896040516020018082805190602001908083835b602083101515613e395780518252602082019150602081019050602083039250613e14565b6001836020036101000a03801982511681845116808217855250505050505090500191505060405160208183030381529060405280519060200120816040516020018082805190602001908083835b602083101515613ead5780518252602082019150602081019050602083039250613e88565b6001836020036101000a038019825116818451168082178552505050505050905001915050604051602081830303815290604052805190602001201415613ef8576001915050613f06565b508180600101925050613d43565b600115158115151415613f1e576001925050506140bc565b60e060405190810160405280600b5481526020018b81526020018a81526020018981526020018881526020018781526020018581525060056000600b548152602001908152602001600020600082015181600001556020820151816001019080519060200190613f8f929190614251565b506040820151816002019080519060200190613fac929190614251565b506060820151816003019080519060200190613fc9929190614251565b506080820151816004019080519060200190613fe6929190614251565b5060a0820151816005019080519060200190614003929190614251565b5060c0820151816006019080519060200190614020929190614251565b50905050606060405190810160405280600b5481526020018c151581526020018681525060066000600b5481526020019081526020016000206000820151816000015560208201518160010160006101000a81548160ff021916908315150217905550604082015181600201908051906020019061409f929190614251565b50905050600b600081548092919060010191905055506000925050505b98975050505050505050565b61010060405190810160405280600a548152602001888152602001878152602001868152602001858152602001848152602001838152602001600081525060086000600a548152602001908152602001600020600082015181600001556020820151816001019080519060200190614141929190614251565b50604082015181600201908051906020019061415e929190614251565b50606082015181600301908051906020019061417b929190614251565b506080820151816004019080519060200190614198929190614251565b5060a08201518160050190805190602001906141b5929190614251565b5060c08201518160060190805190602001906141d2929190614251565b5060e082015181600701559050506040805190810160405280600a5481526020018281525060096000600a548152602001908152602001600020600082015181600001556020820151816001019080519060200190614232929190614251565b50905050600a6000815480929190600101919050555050505050505050565b828054600181600116156101000203166002900490600052602060002090601f016020900481019282601f1061429257805160ff19168380011785556142c0565b828001600101855582156142c0579182015b828111156142bf5782518255916020019190600101906142a4565b5b5090506142cd91906142d1565b5090565b6142f391905b808211156142ef5760008160009055506001016142d7565b5090565b9056fea165627a7a72305820ae73315f047049f61e509bd3437a8741fd3098d73778a9f6db5c26c2b0695d410029",
  "source": "pragma solidity >=0.4.9 < 0.6.0;\ncontract Candidate_data{\n\n //Modified\n    struct Admin{\n        string username;\n        string password;\n    }\n\n    mapping (uint => Admin) public admin;\n    struct Candidate {\n        uint Id;\n        string candidatename;\n        string branch;\n        string gender;\n        string year;\n        string email_id;\n        string reg_id;\n        uint vote_count;\n    }\n\n    struct users{\n        uint voters_ID;\n        string votername;\n        string Regno;\n        string Branch;\n        string Year;\n        string Emailid;\n        string password;\n    }\n\n    struct users_rem{\n        uint voters_ID;\n        bool has_voted;\n        string key;\n    }\n\n    struct Candidate_event{\n        uint Id;\n        string candidate_event;\n    }\n\n    //Modified\n    mapping (address => users) public users_list;\n    mapping (address => users_rem) public users_rem_list;\n    mapping (address => Candidate) public Candidate_list;\n    mapping (address=>Candidate_event) public Candidate_event_list;\n\n    mapping (uint => users) public Users;\n    mapping (uint =>users_rem) public Users_rem;\n\n    mapping(address => bool) public voters;\n\n    mapping (uint =>Candidate) public Candidates;\n\n    mapping (uint =>Candidate_event) public candidate_event;\n\n    uint public Candidate_count;\n    uint public voters_count;\n    event votedEvent (\n        uint indexed _candidateId\n    );\n\n    function addCandidate(string memory _cand, string memory _branch, string memory _gender,\n     string memory _email,  string memory _year, string memory _reg_id, string memory _event) public payable {\n        Candidates[Candidate_count] = Candidate(Candidate_count,_cand, _branch, _gender, _email, _year, _reg_id, 0);\n        candidate_event[Candidate_count] = Candidate_event(Candidate_count, _event);\n        Candidate_count ++;\n    }\n    function addVoter(bool _hasvoted,string memory _votername, string memory _regno, string memory _voterbranch,\n    string memory _voteryear,string memory _emailid, string memory _pubkey,string memory _pass) public payable returns (uint){\n        uint i;\n        bool flag = false;\n        for(i = 0;i < voters_count; i++){\n            string memory temp;\n            temp = Users[i].Regno;\n            if(keccak256(abi.encodePacked(temp)) == keccak256(abi.encodePacked(_regno))){\n                flag = true;\n                break;\n            }\n        }\n\n        if(flag == true){\n            return 1;\n        }\n        else{\n            Users[voters_count] = users(voters_count,_votername,_regno,_voterbranch,_voteryear,_emailid,_pass);\n            Users_rem[voters_count] = users_rem(voters_count, _hasvoted,_pubkey);\n            voters_count++;\n            return 0;\n        }\n\t}\n\n    // function vote (uint _candidateId) public {\n    //     // require that they haven't voted before\n    //     require(!voters[msg.sender],\"check voting done?\");\n\n    //     // require a valid candidateUsers_rem\n    //     require(_candidateId > 0 && _candidateId <= Candidate_count, \"validate candidate_id\");\n\n    //     // record that voter has voted\n    //     voters[msg.sender] = true;\n\n    //     // update candidate vote Count\n    //     Candidates[_candidateId].vote_count++;\n\n    //     // trigger voted event\n    //     emit votedEvent(_candidateId);\n    // }\n    function addVote(string memory _key,string memory _regNo, string memory _voter_regNo) public payable returns (uint) {\n        uint j;\n        uint i;\n        //Add Voter get info;\n        string memory voter_key;\n        string memory voter_reg;\n        // voter_key = Users_rem[0].key;\n        bool flag = false;\n        string memory candidate_regID;\n        for(j = 0; j < voters_count; j++){\n            voter_reg = Users[j].Regno;\n            if(keccak256(abi.encodePacked(voter_reg)) == keccak256(abi.encodePacked(_voter_regNo))){\n                voter_key = Users_rem[j].key;\n                break;\n            }\n        }\n        // for(i = 0; i < voters_count; i++){\n        if(keccak256(abi.encodePacked(_key)) == keccak256(abi.encodePacked(voter_key))){\n                for( i = 0; i < Candidate_count; i++){\n                    candidate_regID = Candidates[i].reg_id;\n                    if(keccak256(abi.encodePacked(candidate_regID)) == keccak256(abi.encodePacked(_regNo))){\n                        flag = true;\n                        Candidates[i].vote_count++;\n                        Users_rem[0].has_voted = true;\n                        break;\n                    }\n                }\n                if(flag == true){\n                    return 1;\n                }else {\n                    return 0;\n                }\n            }\n            // }\n        }\n\n\n\n    function adminLogin(string memory _username,string memory _keyword) public payable returns (uint) {\n        string memory mailid;\n        string memory word;\n        // for(uint i = 0; i <= voters_count; i++){\n            mailid = \"g@g.com\";\n            word = \"gopi\";\n            if((keccak256(abi.encodePacked(mailid)) == keccak256(abi.encodePacked(_username))\n            ) && (keccak256(abi.encodePacked(word)) == keccak256(abi.encodePacked(_keyword)))){\n                //console.log(\"Login successful\");\n                return 1;\n            }\n            else{\n                bool flag = false;\n                for(uint j = 0; j <= voters_count; j++){\n                    mailid = Users[j].Emailid;\n                    word = Users[j].password;\n                    if((keccak256(abi.encodePacked(mailid)) == keccak256(abi.encodePacked(_username))) && (keccak256(abi.encodePacked(word)) == keccak256(abi.encodePacked(_keyword)))){\n                        //console.log(\"Login successful\");\n                        flag = true;\n                    }\n                }\n                if(flag == true){\n                    return 11;\n                }\n                else{\n                    return 0;\n                }\n            }\n        // }\n    }\n\n\n\n}",
  "sourcePath": "/home/nolayercode/Documents/BlockChain/contracts/Candidate_data.sol",
  "compiler": {
    "name": "solc",
    "version": "0.5.0+commit.1d4f565a.Emscripten.clang"
  },
  "schemaVersion": "3.0.9",
  "updatedAt": "2019-06-10T03:14:57.729Z",
  "devdoc": {
    "methods": {}
  },
  "userdoc": {
    "methods": {}
  }
}